{
  "_format": "hh-sol-artifact-1",
  "contractName": "MainContract",
  "sourceName": "contracts/Main.sol",
  "abi": [
    {
      "inputs": [
        {
          "internalType": "uint256",
          "name": "_bnbFeeRate",
          "type": "uint256"
        },
        {
          "internalType": "address payable",
          "name": "_feeAddress",
          "type": "address"
        }
      ],
      "stateMutability": "nonpayable",
      "type": "constructor"
    },
    {
      "inputs": [
        {
          "internalType": "uint8",
          "name": "_accountType",
          "type": "uint8"
        },
        {
          "internalType": "string",
          "name": "_personInfoData",
          "type": "string"
        }
      ],
      "name": "addPerson",
      "outputs": [],
      "stateMutability": "nonpayable",
      "type": "function"
    },
    {
      "inputs": [
        {
          "internalType": "uint256",
          "name": "",
          "type": "uint256"
        }
      ],
      "name": "allPersons",
      "outputs": [
        {
          "internalType": "address",
          "name": "",
          "type": "address"
        }
      ],
      "stateMutability": "view",
      "type": "function"
    },
    {
      "inputs": [],
      "name": "bnbFeeRate",
      "outputs": [
        {
          "internalType": "uint256",
          "name": "",
          "type": "uint256"
        }
      ],
      "stateMutability": "view",
      "type": "function"
    },
    {
      "inputs": [
        {
          "internalType": "bool",
          "name": "_active",
          "type": "bool"
        }
      ],
      "name": "changeActive",
      "outputs": [],
      "stateMutability": "nonpayable",
      "type": "function"
    },
    {
      "inputs": [
        {
          "internalType": "address",
          "name": "_tokenAddress",
          "type": "address"
        },
        {
          "internalType": "uint256",
          "name": "_feeRate",
          "type": "uint256"
        }
      ],
      "name": "changeAvailableTokenFee",
      "outputs": [],
      "stateMutability": "nonpayable",
      "type": "function"
    },
    {
      "inputs": [
        {
          "internalType": "uint256",
          "name": "_bnbFeeRate",
          "type": "uint256"
        },
        {
          "internalType": "address payable",
          "name": "_feeAddress",
          "type": "address"
        }
      ],
      "name": "changeSettings",
      "outputs": [],
      "stateMutability": "nonpayable",
      "type": "function"
    },
    {
      "inputs": [
        {
          "internalType": "address",
          "name": "_workAddress",
          "type": "address"
        }
      ],
      "name": "checkDeadline",
      "outputs": [
        {
          "internalType": "bool",
          "name": "",
          "type": "bool"
        },
        {
          "internalType": "address",
          "name": "",
          "type": "address"
        }
      ],
      "stateMutability": "view",
      "type": "function"
    },
    {
      "inputs": [
        {
          "internalType": "string",
          "name": "_workTitle",
          "type": "string"
        },
        {
          "internalType": "string",
          "name": "_workCategory",
          "type": "string"
        },
        {
          "internalType": "string",
          "name": "_workDescription",
          "type": "string"
        },
        {
          "internalType": "string",
          "name": "_workAvarageBudget",
          "type": "string"
        }
      ],
      "name": "createWork",
      "outputs": [],
      "stateMutability": "nonpayable",
      "type": "function"
    },
    {
      "inputs": [
        {
          "internalType": "uint256",
          "name": "",
          "type": "uint256"
        }
      ],
      "name": "deployedWorks",
      "outputs": [
        {
          "internalType": "address",
          "name": "",
          "type": "address"
        }
      ],
      "stateMutability": "view",
      "type": "function"
    },
    {
      "inputs": [],
      "name": "feeAddress",
      "outputs": [
        {
          "internalType": "address payable",
          "name": "",
          "type": "address"
        }
      ],
      "stateMutability": "view",
      "type": "function"
    },
    {
      "inputs": [
        {
          "internalType": "address",
          "name": "",
          "type": "address"
        }
      ],
      "name": "feeRates",
      "outputs": [
        {
          "internalType": "uint256",
          "name": "",
          "type": "uint256"
        }
      ],
      "stateMutability": "view",
      "type": "function"
    },
    {
      "inputs": [],
      "name": "getAllPersons",
      "outputs": [
        {
          "internalType": "address[]",
          "name": "",
          "type": "address[]"
        }
      ],
      "stateMutability": "view",
      "type": "function"
    },
    {
      "inputs": [
        {
          "internalType": "address",
          "name": "_personAddress",
          "type": "address"
        }
      ],
      "name": "getPersonAccountType",
      "outputs": [
        {
          "internalType": "uint8",
          "name": "",
          "type": "uint8"
        }
      ],
      "stateMutability": "view",
      "type": "function"
    },
    {
      "inputs": [
        {
          "internalType": "address",
          "name": "_personAddress",
          "type": "address"
        }
      ],
      "name": "getPersonInfoData",
      "outputs": [
        {
          "internalType": "uint8",
          "name": "",
          "type": "uint8"
        },
        {
          "internalType": "uint256",
          "name": "",
          "type": "uint256"
        },
        {
          "internalType": "uint256[]",
          "name": "",
          "type": "uint256[]"
        },
        {
          "internalType": "address[]",
          "name": "",
          "type": "address[]"
        },
        {
          "internalType": "string",
          "name": "",
          "type": "string"
        }
      ],
      "stateMutability": "view",
      "type": "function"
    },
    {
      "inputs": [],
      "name": "getWorks",
      "outputs": [
        {
          "internalType": "address[]",
          "name": "",
          "type": "address[]"
        }
      ],
      "stateMutability": "view",
      "type": "function"
    },
    {
      "inputs": [],
      "name": "isActive",
      "outputs": [
        {
          "internalType": "bool",
          "name": "",
          "type": "bool"
        }
      ],
      "stateMutability": "view",
      "type": "function"
    },
    {
      "inputs": [
        {
          "internalType": "address",
          "name": "",
          "type": "address"
        }
      ],
      "name": "isDeployedWorks",
      "outputs": [
        {
          "internalType": "bool",
          "name": "",
          "type": "bool"
        }
      ],
      "stateMutability": "view",
      "type": "function"
    },
    {
      "inputs": [],
      "name": "platform_owner",
      "outputs": [
        {
          "internalType": "address payable",
          "name": "",
          "type": "address"
        }
      ],
      "stateMutability": "view",
      "type": "function"
    },
    {
      "inputs": [
        {
          "internalType": "address",
          "name": "_workAddress",
          "type": "address"
        },
        {
          "internalType": "address payable",
          "name": "_freelanceraddress",
          "type": "address"
        }
      ],
      "name": "setFreelancerWorkAddress",
      "outputs": [],
      "stateMutability": "nonpayable",
      "type": "function"
    },
    {
      "inputs": [
        {
          "internalType": "uint256",
          "name": "_puan",
          "type": "uint256"
        },
        {
          "internalType": "address payable",
          "name": "_freelancerAddress",
          "type": "address"
        }
      ],
      "name": "setPuan",
      "outputs": [],
      "stateMutability": "nonpayable",
      "type": "function"
    },
    {
      "inputs": [
        {
          "internalType": "address",
          "name": "newOwner",
          "type": "address"
        }
      ],
      "name": "transferOwnership",
      "outputs": [],
      "stateMutability": "nonpayable",
      "type": "function"
    },
    {
      "inputs": [
        {
          "internalType": "string",
          "name": "_personInfoData",
          "type": "string"
        }
      ],
      "name": "updatePerson",
      "outputs": [],
      "stateMutability": "nonpayable",
      "type": "function"
    }
  ],
  "bytecode": "0x608060405233600160006101000a81548173ffffffffffffffffffffffffffffffffffffffff021916908373ffffffffffffffffffffffffffffffffffffffff1602179055506001600960146101000a81548160ff0219169083151502179055503480156200006d57600080fd5b506040516200611a3803806200611a833981810160405281019062000093919062000119565b60016000819055508160068190555080600960006101000a81548173ffffffffffffffffffffffffffffffffffffffff021916908373ffffffffffffffffffffffffffffffffffffffff1602179055505050620001cc565b600081519050620000fc8162000198565b92915050565b6000815190506200011381620001b2565b92915050565b600080604083850312156200012d57600080fd5b60006200013d8582860162000102565b92505060206200015085828601620000eb565b9150509250929050565b600062000167826200016e565b9050919050565b600073ffffffffffffffffffffffffffffffffffffffff82169050919050565b6000819050919050565b620001a3816200015a565b8114620001af57600080fd5b50565b620001bd816200018e565b8114620001c957600080fd5b50565b615f3e80620001dc6000396000f3fe60806040523480156200001157600080fd5b50600436106200015f5760003560e01c80635758b6fd11620000c9578063a724e5701162000087578063a724e57014620003f8578063abb2d8bc1462000418578063b6a114031462000438578063bdb98903146200046f578063eb52e9d2146200048f578063f2fde38b14620004af576200015f565b80635758b6fd146200032857806366626963146200035e578063785ea0cc146200037e5780637fa4ba8714620003b4578063a6c70b8314620003d6576200015f565b806322f3e2d4116200012357806322f3e2d414620002385780632d5090ff146200025a57806336d30b0b146200027a5780633a228f45146200029a57806340a13bb214620002d0578063412753581462000306576200015f565b80620d35a714620001645780630ed8288d14620001865780631079958214620001c0578063147aad6e14620001e2578063212e301c1462000202575b600080fd5b6200016e620004cf565b6040516200017d919062001c9a565b60405180910390f35b620001a460048036038101906200019e9190620016c7565b620004d5565b604051620001b795949392919062001cd4565b60405180910390f35b620001ca620006c9565b604051620001d9919062001b86565b60405180910390f35b620002006004803603810190620001fa91906200190e565b620006ef565b005b6200022060048036038101906200021a9190620016c7565b62000762565b6040516200022f919062001cb7565b60405180910390f35b62000242620007c0565b60405162000251919062001bc7565b60405180910390f35b62000278600480360381019062000272919062001734565b620007d3565b005b620002986004803603810190620002929190620017e6565b62000876565b005b620002b86004803603810190620002b29190620016c7565b62000a42565b604051620002c7919062001bc7565b60405180910390f35b620002ee6004803603810190620002e89190620016c7565b62000a62565b604051620002fd919062001c9a565b60405180910390f35b6200031062000a7a565b6040516200031f919062001b86565b60405180910390f35b620003466004803603810190620003409190620018b6565b62000aa0565b60405162000355919062001b69565b60405180910390f35b6200037c6004803603810190620003769190620017a1565b62000ae0565b005b6200039c6004803603810190620003969190620018b6565b62000bb3565b604051620003ab919062001b69565b60405180910390f35b620003be62000bf3565b604051620003cd919062001ba3565b60405180910390f35b620003e062000c83565b604051620003ef919062001ba3565b60405180910390f35b6200041660048036038101906200041091906200190e565b62000d13565b005b6200043660048036038101906200043091906200194f565b62000dba565b005b620004566004803603810190620004509190620016c7565b620010f4565b6040516200046692919062001be4565b60405180910390f35b6200048d6004803603810190620004879190620016f3565b62001231565b005b620004ad6004803603810190620004a7919062001775565b62001335565b005b620004cd6004803603810190620004c79190620016c7565b62001352565b005b60065481565b60008060608060606000600260008873ffffffffffffffffffffffffffffffffffffffff1673ffffffffffffffffffffffffffffffffffffffff16815260200190815260200160002090508060000160009054906101000a900460ff168160010154826002018360030184600401828054806020026020016040519081016040528092919081815260200182805480156200059057602002820191906000526020600020905b8154815260200190600101908083116200057b575b50505050509250818054806020026020016040519081016040528092919081815260200182805480156200061a57602002820191906000526020600020905b8160009054906101000a900473ffffffffffffffffffffffffffffffffffffffff1673ffffffffffffffffffffffffffffffffffffffff1681526020019060010190808311620005cf575b505050505091508080546200062f9062001ee3565b80601f01602080910402602001604051908101604052809291908181526020018280546200065d9062001ee3565b8015620006ae5780601f106200068257610100808354040283529160200191620006ae565b820191906000526020600020905b8154815290600101906020018083116200069057829003601f168201915b50505050509050955095509550955095505091939590929450565b600160009054906101000a900473ffffffffffffffffffffffffffffffffffffffff1681565b6000600260008373ffffffffffffffffffffffffffffffffffffffff1673ffffffffffffffffffffffffffffffffffffffff168152602001908152602001600020905080600201839080600181540180825580915050600190039060005260206000200160009091909190915055505050565b600080600260008473ffffffffffffffffffffffffffffffffffffffff1673ffffffffffffffffffffffffffffffffffffffff16815260200190815260200160002090508060000160009054906101000a900460ff16915050919050565b600960149054906101000a900460ff1681565b3373ffffffffffffffffffffffffffffffffffffffff16600160009054906101000a900473ffffffffffffffffffffffffffffffffffffffff1673ffffffffffffffffffffffffffffffffffffffff16146200082e57600080fd5b80600460008473ffffffffffffffffffffffffffffffffffffffff1673ffffffffffffffffffffffffffffffffffffffff168152602001908152602001600020819055505050565b600960149054906101000a900460ff166200089057600080fd5b6000600260003373ffffffffffffffffffffffffffffffffffffffff1673ffffffffffffffffffffffffffffffffffffffff16815260200190815260200160002090506000858585853330604051620008e9906200142c565b620008fa9695949392919062001c11565b604051809103906000f08015801562000917573d6000803e3d6000fd5b50905081600301819080600181540180825580915050600190039060005260206000200160009091909190916101000a81548173ffffffffffffffffffffffffffffffffffffffff021916908373ffffffffffffffffffffffffffffffffffffffff1602179055506007819080600181540180825580915050600190039060005260206000200160009091909190916101000a81548173ffffffffffffffffffffffffffffffffffffffff021916908373ffffffffffffffffffffffffffffffffffffffff1602179055506001600560008373ffffffffffffffffffffffffffffffffffffffff1673ffffffffffffffffffffffffffffffffffffffff16815260200190815260200160002060006101000a81548160ff021916908315150217905550505050505050565b60056020528060005260406000206000915054906101000a900460ff1681565b60046020528060005260406000206000915090505481565b600960009054906101000a900473ffffffffffffffffffffffffffffffffffffffff1681565b6007818154811062000ab157600080fd5b906000526020600020016000915054906101000a900473ffffffffffffffffffffffffffffffffffffffff1681565b600360003373ffffffffffffffffffffffffffffffffffffffff1673ffffffffffffffffffffffffffffffffffffffff16815260200190815260200160002060009054906101000a900460ff1662000b3757600080fd5b600960149054906101000a900460ff1662000b5157600080fd5b6000600260003373ffffffffffffffffffffffffffffffffffffffff1673ffffffffffffffffffffffffffffffffffffffff16815260200190815260200160002090508181600401908051906020019062000bae9291906200143a565b505050565b6008818154811062000bc457600080fd5b906000526020600020016000915054906101000a900473ffffffffffffffffffffffffffffffffffffffff1681565b6060600880548060200260200160405190810160405280929190818152602001828054801562000c7957602002820191906000526020600020905b8160009054906101000a900473ffffffffffffffffffffffffffffffffffffffff1673ffffffffffffffffffffffffffffffffffffffff168152602001906001019080831162000c2e575b5050505050905090565b6060600780548060200260200160405190810160405280929190818152602001828054801562000d0957602002820191906000526020600020905b8160009054906101000a900473ffffffffffffffffffffffffffffffffffffffff1673ffffffffffffffffffffffffffffffffffffffff168152602001906001019080831162000cbe575b5050505050905090565b3373ffffffffffffffffffffffffffffffffffffffff16600160009054906101000a900473ffffffffffffffffffffffffffffffffffffffff1673ffffffffffffffffffffffffffffffffffffffff161462000d6e57600080fd5b8160068190555080600960006101000a81548173ffffffffffffffffffffffffffffffffffffffff021916908373ffffffffffffffffffffffffffffffffffffffff1602179055505050565b600960149054906101000a900460ff1662000dd457600080fd5b6002600054141562000de557600080fd5b600260008190555060006040518060c001604052808460ff1681526020013373ffffffffffffffffffffffffffffffffffffffff16815260200160008152602001600067ffffffffffffffff81111562000e68577f4e487b7100000000000000000000000000000000000000000000000000000000600052604160045260246000fd5b60405190808252806020026020018201604052801562000e975781602001602082028036833780820191505090505b508152602001600067ffffffffffffffff81111562000edf577f4e487b7100000000000000000000000000000000000000000000000000000000600052604160045260246000fd5b60405190808252806020026020018201604052801562000f0e5781602001602082028036833780820191505090505b50815260200183815250905080600260003373ffffffffffffffffffffffffffffffffffffffff1673ffffffffffffffffffffffffffffffffffffffff16815260200190815260200160002060008201518160000160006101000a81548160ff021916908360ff16021790555060208201518160000160016101000a81548173ffffffffffffffffffffffffffffffffffffffff021916908373ffffffffffffffffffffffffffffffffffffffff16021790555060408201518160010155606082015181600201908051906020019062000fea929190620014cb565b506080820151816003019080519060200190620010099291906200151d565b5060a0820151816004019080519060200190620010289291906200143a565b509050506008339080600181540180825580915050600190039060005260206000200160009091909190916101000a81548173ffffffffffffffffffffffffffffffffffffffff021916908373ffffffffffffffffffffffffffffffffffffffff1602179055506001600360003373ffffffffffffffffffffffffffffffffffffffff1673ffffffffffffffffffffffffffffffffffffffff16815260200190815260200160002060006101000a81548160ff0219169083151502179055505060016000819055505050565b60008060008390508073ffffffffffffffffffffffffffffffffffffffff1663bef3a0836040518163ffffffff1660e01b815260040160206040518083038186803b1580156200114357600080fd5b505afa15801562001158573d6000803e3d6000fd5b505050506040513d601f19601f820116820180604052508101906200117e9190620018e2565b421180156200120f575060008173ffffffffffffffffffffffffffffffffffffffff1663bef3a0836040518163ffffffff1660e01b815260040160206040518083038186803b158015620011d157600080fd5b505afa158015620011e6573d6000803e3d6000fd5b505050506040513d601f19601f820116820180604052508101906200120c9190620018e2565b14155b15620012235760018492509250506200122c565b60008492509250505b915091565b600560003373ffffffffffffffffffffffffffffffffffffffff1673ffffffffffffffffffffffffffffffffffffffff16815260200190815260200160002060009054906101000a900460ff166200128857600080fd5b6000600260008373ffffffffffffffffffffffffffffffffffffffff1673ffffffffffffffffffffffffffffffffffffffff168152602001908152602001600020905080600301839080600181540180825580915050600190039060005260206000200160009091909190916101000a81548173ffffffffffffffffffffffffffffffffffffffff021916908373ffffffffffffffffffffffffffffffffffffffff160217905550505050565b80600960146101000a81548160ff02191690831515021790555050565b3373ffffffffffffffffffffffffffffffffffffffff16600160009054906101000a900473ffffffffffffffffffffffffffffffffffffffff1673ffffffffffffffffffffffffffffffffffffffff1614620013ad57600080fd5b600073ffffffffffffffffffffffffffffffffffffffff168173ffffffffffffffffffffffffffffffffffffffff161415620013e857600080fd5b80600160006101000a81548173ffffffffffffffffffffffffffffffffffffffff021916908373ffffffffffffffffffffffffffffffffffffffff16021790555050565b613ec8806200204183390190565b828054620014489062001ee3565b90600052602060002090601f0160209004810192826200146c5760008555620014b8565b82601f106200148757805160ff1916838001178555620014b8565b82800160010185558215620014b8579182015b82811115620014b75782518255916020019190600101906200149a565b5b509050620014c79190620015ac565b5090565b8280548282559060005260206000209081019282156200150a579160200282015b8281111562001509578251825591602001919060010190620014ec565b5b509050620015199190620015ac565b5090565b82805482825590600052602060002090810192821562001599579160200282015b82811115620015985782518260006101000a81548173ffffffffffffffffffffffffffffffffffffffff021916908373ffffffffffffffffffffffffffffffffffffffff160217905550916020019190600101906200153e565b5b509050620015a89190620015ac565b5090565b5b80821115620015c7576000816000905550600101620015ad565b5090565b6000620015e2620015dc8462001d6f565b62001d46565b905082815260208101848484011115620015fb57600080fd5b6200160884828562001e9e565b509392505050565b600081359050620016218162001fbe565b92915050565b600081359050620016388162001fd8565b92915050565b6000813590506200164f8162001ff2565b92915050565b600082601f8301126200166757600080fd5b813562001679848260208601620015cb565b91505092915050565b60008135905062001693816200200c565b92915050565b600081519050620016aa816200200c565b92915050565b600081359050620016c18162002026565b92915050565b600060208284031215620016da57600080fd5b6000620016ea8482850162001610565b91505092915050565b600080604083850312156200170757600080fd5b6000620017178582860162001610565b92505060206200172a8582860162001627565b9150509250929050565b600080604083850312156200174857600080fd5b6000620017588582860162001610565b92505060206200176b8582860162001682565b9150509250929050565b6000602082840312156200178857600080fd5b600062001798848285016200163e565b91505092915050565b600060208284031215620017b457600080fd5b600082013567ffffffffffffffff811115620017cf57600080fd5b620017dd8482850162001655565b91505092915050565b60008060008060808587031215620017fd57600080fd5b600085013567ffffffffffffffff8111156200181857600080fd5b620018268782880162001655565b945050602085013567ffffffffffffffff8111156200184457600080fd5b620018528782880162001655565b935050604085013567ffffffffffffffff8111156200187057600080fd5b6200187e8782880162001655565b925050606085013567ffffffffffffffff8111156200189c57600080fd5b620018aa8782880162001655565b91505092959194509250565b600060208284031215620018c957600080fd5b6000620018d98482850162001682565b91505092915050565b600060208284031215620018f557600080fd5b6000620019058482850162001699565b91505092915050565b600080604083850312156200192257600080fd5b6000620019328582860162001682565b9250506020620019458582860162001627565b9150509250929050565b600080604083850312156200196357600080fd5b60006200197385828601620016b0565b925050602083013567ffffffffffffffff8111156200199157600080fd5b6200199f8582860162001655565b9150509250929050565b6000620019b78383620019ee565b60208301905092915050565b6000620019d1838362001b36565b60208301905092915050565b620019e88162001e47565b82525050565b620019f98162001e33565b82525050565b62001a0a8162001e33565b82525050565b600062001a1d8262001dc5565b62001a29818562001e00565b935062001a368362001da5565b8060005b8381101562001a6d57815162001a518882620019a9565b975062001a5e8362001de6565b92505060018101905062001a3a565b5085935050505092915050565b600062001a878262001dd0565b62001a93818562001e11565b935062001aa08362001db5565b8060005b8381101562001ad757815162001abb8882620019c3565b975062001ac88362001df3565b92505060018101905062001aa4565b5085935050505092915050565b62001aef8162001e5b565b82525050565b600062001b028262001ddb565b62001b0e818562001e22565b935062001b2081856020860162001ead565b62001b2b8162001fad565b840191505092915050565b62001b418162001e87565b82525050565b62001b528162001e87565b82525050565b62001b638162001e91565b82525050565b600060208201905062001b806000830184620019ff565b92915050565b600060208201905062001b9d6000830184620019dd565b92915050565b6000602082019050818103600083015262001bbf818462001a10565b905092915050565b600060208201905062001bde600083018462001ae4565b92915050565b600060408201905062001bfb600083018562001ae4565b62001c0a6020830184620019ff565b9392505050565b600060c082019050818103600083015262001c2d818962001af5565b9050818103602083015262001c43818862001af5565b9050818103604083015262001c59818762001af5565b9050818103606083015262001c6f818662001af5565b905062001c806080830185620019dd565b62001c8f60a0830184620019ff565b979650505050505050565b600060208201905062001cb1600083018462001b47565b92915050565b600060208201905062001cce600083018462001b58565b92915050565b600060a08201905062001ceb600083018862001b58565b62001cfa602083018762001b47565b818103604083015262001d0e818662001a7a565b9050818103606083015262001d24818562001a10565b9050818103608083015262001d3a818462001af5565b90509695505050505050565b600062001d5262001d65565b905062001d60828262001f19565b919050565b6000604051905090565b600067ffffffffffffffff82111562001d8d5762001d8c62001f7e565b5b62001d988262001fad565b9050602081019050919050565b6000819050602082019050919050565b6000819050602082019050919050565b600081519050919050565b600081519050919050565b600081519050919050565b6000602082019050919050565b6000602082019050919050565b600082825260208201905092915050565b600082825260208201905092915050565b600082825260208201905092915050565b600062001e408262001e67565b9050919050565b600062001e548262001e67565b9050919050565b60008115159050919050565b600073ffffffffffffffffffffffffffffffffffffffff82169050919050565b6000819050919050565b600060ff82169050919050565b82818337600083830152505050565b60005b8381101562001ecd57808201518184015260208101905062001eb0565b8381111562001edd576000848401525b50505050565b6000600282049050600182168062001efc57607f821691505b6020821081141562001f135762001f1262001f4f565b5b50919050565b62001f248262001fad565b810181811067ffffffffffffffff8211171562001f465762001f4562001f7e565b5b80604052505050565b7f4e487b7100000000000000000000000000000000000000000000000000000000600052602260045260246000fd5b7f4e487b7100000000000000000000000000000000000000000000000000000000600052604160045260246000fd5b6000601f19601f8301169050919050565b62001fc98162001e33565b811462001fd557600080fd5b50565b62001fe38162001e47565b811462001fef57600080fd5b50565b62001ffd8162001e5b565b81146200200957600080fd5b50565b620020178162001e87565b81146200202357600080fd5b50565b620020318162001e91565b81146200203d57600080fd5b5056fe60806040523480156200001157600080fd5b5060405162003ec838038062003ec8833981810160405281019062000037919062000322565b600160008190555033600460006101000a81548173ffffffffffffffffffffffffffffffffffffffff021916908373ffffffffffffffffffffffffffffffffffffffff160217905550856006908051906020019062000098929190620001d2565b508460079080519060200190620000b1929190620001d2565b508360089080519060200190620000ca929190620001d2565b5042600e819055508260099080519060200190620000ea929190620001d2565b5060006014819055506001601560006101000a81548160ff02191690831515021790555081601560056101000a81548173ffffffffffffffffffffffffffffffffffffffff021916908373ffffffffffffffffffffffffffffffffffffffff1602179055506000601560036101000a81548160ff0219169083151502179055506000601560046101000a81548160ff02191690831515021790555080600560006101000a81548173ffffffffffffffffffffffffffffffffffffffff021916908373ffffffffffffffffffffffffffffffffffffffff16021790555050505050505062000608565b828054620001e090620004f9565b90600052602060002090601f01602090048101928262000204576000855562000250565b82601f106200021f57805160ff191683800117855562000250565b8280016001018555821562000250579182015b828111156200024f57825182559160200191906001019062000232565b5b5090506200025f919062000263565b5090565b5b808211156200027e57600081600090555060010162000264565b5090565b600062000299620002938462000445565b6200041c565b905082815260208101848484011115620002b257600080fd5b620002bf848285620004c3565b509392505050565b600081519050620002d881620005d4565b92915050565b600081519050620002ef81620005ee565b92915050565b600082601f8301126200030757600080fd5b81516200031984826020860162000282565b91505092915050565b60008060008060008060c087890312156200033c57600080fd5b600087015167ffffffffffffffff8111156200035757600080fd5b6200036589828a01620002f5565b965050602087015167ffffffffffffffff8111156200038357600080fd5b6200039189828a01620002f5565b955050604087015167ffffffffffffffff811115620003af57600080fd5b620003bd89828a01620002f5565b945050606087015167ffffffffffffffff811115620003db57600080fd5b620003e989828a01620002f5565b9350506080620003fc89828a01620002de565b92505060a06200040f89828a01620002c7565b9150509295509295509295565b6000620004286200043b565b90506200043682826200052f565b919050565b6000604051905090565b600067ffffffffffffffff82111562000463576200046262000594565b5b6200046e82620005c3565b9050602081019050919050565b60006200048882620004a3565b9050919050565b60006200049c82620004a3565b9050919050565b600073ffffffffffffffffffffffffffffffffffffffff82169050919050565b60005b83811015620004e3578082015181840152602081019050620004c6565b83811115620004f3576000848401525b50505050565b600060028204905060018216806200051257607f821691505b6020821081141562000529576200052862000565565b5b50919050565b6200053a82620005c3565b810181811067ffffffffffffffff821117156200055c576200055b62000594565b5b80604052505050565b7f4e487b7100000000000000000000000000000000000000000000000000000000600052602260045260246000fd5b7f4e487b7100000000000000000000000000000000000000000000000000000000600052604160045260246000fd5b6000601f19601f8301169050919050565b620005df816200047b565b8114620005eb57600080fd5b50565b620005f9816200048f565b81146200060557600080fd5b50565b6138b080620006186000396000f3fe60806040526004361061023b5760003560e01c80638da5cb5b1161012e578063d9a0bb26116100ab578063f2fde38b1161006f578063f2fde38b146107f7578063f4c21a0b14610820578063f62a69d01461084b578063f69b832414610876578063f7757bfe146108a15761023b565b8063d9a0bb2614610738578063e2dabb4814610761578063ee4c2d1614610778578063f06ffe64146107a3578063f0fe9a1f146107ce5761023b565b8063c3c7af35116100f2578063c3c7af351461064b578063c400554814610674578063c6814d4c1461069f578063d5390d3e146106e2578063d759f9cf1461070d5761023b565b80638da5cb5b146105765780639e318447146105a1578063aac55208146105cc578063baa93b2e146105f7578063bef3a083146106205761023b565b80634fd931e8116101bc5780636f948cfd116101805780636f948cfd1461049c57806370f331e8146104c55780637238254a146104f057806387f7f37f1461051b5780638adf53391461054b5761023b565b80634fd931e8146103ea5780635f37e97e14610427578063613004951461043e5780636c649b3e146104555780636f081d56146104715761023b565b80632cdfad38116102035780632cdfad38146103155780632e220cdb14610340578063359b248c1461036b5780633d716ecd146103965780633ed694ca146103bf5761023b565b806306a4e7cb146102405780630d0175a91461026b578063139e5f231461029657806316a65948146102c157806317934f0e146102ea575b600080fd5b34801561024c57600080fd5b506102556108ca565b6040516102629190613115565b60405180910390f35b34801561027757600080fd5b506102806108f0565b60405161028d9190613115565b60405180910390f35b3480156102a257600080fd5b506102ab610916565b6040516102b89190613196565b60405180910390f35b3480156102cd57600080fd5b506102e860048036038101906102e39190612c0b565b6109a4565b005b3480156102f657600080fd5b506102ff6109be565b60405161030c91906132ce565b60405180910390f35b34801561032157600080fd5b5061032a6109c4565b6040516103379190613152565b60405180910390f35b34801561034c57600080fd5b506103556109d7565b6040516103629190613196565b60405180910390f35b34801561037757600080fd5b50610380610a65565b60405161038d9190613130565b60405180910390f35b3480156103a257600080fd5b506103bd60048036038101906103b89190612c0b565b610af3565b005b3480156103cb57600080fd5b506103d4610b2f565b6040516103e191906132ce565b60405180910390f35b3480156103f657600080fd5b50610411600480360381019061040c9190612d23565b610b35565b60405161041e91906130fa565b60405180910390f35b34801561043357600080fd5b5061043c610b74565b005b34801561044a57600080fd5b50610453610cf8565b005b61046f600480360381019061046a9190612b90565b610f97565b005b34801561047d57600080fd5b506104866110fc565b6040516104939190613152565b60405180910390f35b3480156104a857600080fd5b506104c360048036038101906104be9190612c0b565b61110f565b005b3480156104d157600080fd5b506104da611168565b6040516104e791906132ce565b60405180910390f35b3480156104fc57600080fd5b5061050561116e565b6040516105129190613152565b60405180910390f35b34801561052757600080fd5b50610530611181565b604051610542969594939291906131b8565b60405180910390f35b34801561055757600080fd5b5061056061135f565b60405161056d9190613196565b60405180910390f35b34801561058257600080fd5b5061058b6113ed565b6040516105989190613115565b60405180910390f35b3480156105ad57600080fd5b506105b6611413565b6040516105c39190613196565b60405180910390f35b3480156105d857600080fd5b506105e16114a1565b6040516105ee91906132ce565b60405180910390f35b34801561060357600080fd5b5061061e60048036038101906106199190612e5c565b6114a7565b005b34801561062c57600080fd5b5061063561173d565b60405161064291906132ce565b60405180910390f35b34801561065757600080fd5b50610672600480360381019061066d9190612dc9565b611743565b005b34801561068057600080fd5b5061068961188d565b60405161069691906132ce565b60405180910390f35b3480156106ab57600080fd5b506106c660048036038101906106c19190612b90565b611893565b6040516106d99796959493929190613312565b60405180910390f35b3480156106ee57600080fd5b506106f7611a6d565b6040516107049190613152565b60405180910390f35b34801561071957600080fd5b50610722611a80565b60405161072f9190613196565b60405180910390f35b34801561074457600080fd5b5061075f600480360381019061075a9190612c0b565b611b0e565b005b34801561076d57600080fd5b50610776611b60565b005b34801561078457600080fd5b5061078d611c1e565b60405161079a9190613196565b60405180910390f35b3480156107af57600080fd5b506107b8611cac565b6040516107c59190613152565b60405180910390f35b3480156107da57600080fd5b506107f560048036038101906107f09190612c4c565b611cbf565b005b34801561080357600080fd5b5061081e60048036038101906108199190612b67565b611e03565b005b34801561082c57600080fd5b50610835611edb565b6040516108429190613196565b60405180910390f35b34801561085757600080fd5b50610860611f69565b60405161086d91906132ce565b60405180910390f35b34801561088257600080fd5b5061088b611f6f565b6040516108989190613196565b60405180910390f35b3480156108ad57600080fd5b506108c860048036038101906108c39190612d75565b611ffd565b005b601660009054906101000a900473ffffffffffffffffffffffffffffffffffffffff1681565b601560059054906101000a900473ffffffffffffffffffffffffffffffffffffffff1681565b6009805461092390613607565b80601f016020809104026020016040519081016040528092919081815260200182805461094f90613607565b801561099c5780601f106109715761010080835404028352916020019161099c565b820191906000526020600020905b81548152906001019060200180831161097f57829003601f168201915b505050505081565b80600b90805190602001906109ba929190612989565b5050565b60125481565b601560049054906101000a900460ff1681565b600c80546109e490613607565b80601f0160208091040260200160405190810160405280929190818152602001828054610a1090613607565b8015610a5d5780601f10610a3257610100808354040283529160200191610a5d565b820191906000526020600020905b815481529060010190602001808311610a4057829003601f168201915b505050505081565b60606017805480602002602001604051908101604052809291908181526020018280548015610ae957602002820191906000526020600020905b8160009054906101000a900473ffffffffffffffffffffffffffffffffffffffff1673ffffffffffffffffffffffffffffffffffffffff1681526020019060010190808311610a9f575b5050505050905090565b6001601560036101000a81548160ff02191690831515021790555080600a9080519060200190610b24929190612989565b504260108190555050565b60115481565b60178181548110610b4557600080fd5b906000526020600020016000915054906101000a900473ffffffffffffffffffffffffffffffffffffffff1681565b600560009054906101000a900473ffffffffffffffffffffffffffffffffffffffff1673ffffffffffffffffffffffffffffffffffffffff166322f3e2d46040518163ffffffff1660e01b815260040160206040518083038186803b158015610bdc57600080fd5b505afa158015610bf0573d6000803e3d6000fd5b505050506040513d601f19601f82011682018060405250810190610c149190612be2565b610c1d57600080fd5b601860003373ffffffffffffffffffffffffffffffffffffffff1673ffffffffffffffffffffffffffffffffffffffff1681526020019081526020016000206000808201600090556001820160006101000a81549073ffffffffffffffffffffffffffffffffffffffff0219169055600282016000610c9c9190612a0f565b600382016000610cac9190612a0f565b60048201600090556005820160006101000a81549060ff02191690556005820160016101000a81549060ff0219169055505060146000815480929190610cf1906135dd565b9190505550565b60026000541415610d0857600080fd5b600260008190555060105473__$0b4a30207c22200d0590b5b5b045663719$__63e6cb90139091620151806040518363ffffffff1660e01b8152600401610d509291906133b8565b60206040518083038186803b158015610d6857600080fd5b505af4158015610d7c573d6000803e3d6000fd5b505050506040513d601f19601f82011682018060405250810190610da09190612d4c565b4211610de1576040517f08c379a0000000000000000000000000000000000000000000000000000000008152600401610dd89061324e565b60405180910390fd5b601560049054906101000a900460ff1615610e31576040517f08c379a0000000000000000000000000000000000000000000000000000000008152600401610e289061326e565b60405180910390fd5b601560039054906101000a900460ff16610e80576040517f08c379a0000000000000000000000000000000000000000000000000000000008152600401610e77906132ae565b60405180910390fd5b610e88612113565b600560009054906101000a900473ffffffffffffffffffffffffffffffffffffffff1673ffffffffffffffffffffffffffffffffffffffff1663147aad6e6005601660009054906101000a900473ffffffffffffffffffffffffffffffffffffffff166040518363ffffffff1660e01b8152600401610f0892919061316d565b600060405180830381600087803b158015610f2257600080fd5b505af1158015610f36573d6000803e3d6000fd5b505050506040518060400160405280602081526020017f4175746f20436f6e6669726d656420427920536d61727420436f6e7472616374815250600d9080519060200190610f85929190612989565b50426012819055506001600081905550565b600560009054906101000a900473ffffffffffffffffffffffffffffffffffffffff1673ffffffffffffffffffffffffffffffffffffffff166322f3e2d46040518163ffffffff1660e01b815260040160206040518083038186803b158015610fff57600080fd5b505afa158015611013573d6000803e3d6000fd5b505050506040513d601f19601f820116820180604052508101906110379190612be2565b61104057600080fd5b80601660006101000a81548173ffffffffffffffffffffffffffffffffffffffff021916908373ffffffffffffffffffffffffffffffffffffffff1602179055506001601560006101000a81548160ff02191690831515021790555042601181905550600154600f819055506003546013819055506001601560016101000a81548160ff021916908315150217905550600260009054906101000a900460ff16601560026101000a81548160ff02191690831515021790555050565b601560019054906101000a900460ff1681565b6002600054141561111f57600080fd5b600260008190555062014a784261113691906134b5565b5061113f612113565b80600c9080519060200190611155929190612989565b5042601281905550600160008190555050565b60135481565b601560029054906101000a900460ff1681565b6060806000606060008060066008600e546009601454601560009054906101000a900460ff168580546111b390613607565b80601f01602080910402602001604051908101604052809291908181526020018280546111df90613607565b801561122c5780601f106112015761010080835404028352916020019161122c565b820191906000526020600020905b81548152906001019060200180831161120f57829003601f168201915b5050505050955084805461123f90613607565b80601f016020809104026020016040519081016040528092919081815260200182805461126b90613607565b80156112b85780601f1061128d576101008083540402835291602001916112b8565b820191906000526020600020905b81548152906001019060200180831161129b57829003601f168201915b505050505094508280546112cb90613607565b80601f01602080910402602001604051908101604052809291908181526020018280546112f790613607565b80156113445780601f1061131957610100808354040283529160200191611344565b820191906000526020600020905b81548152906001019060200180831161132757829003601f168201915b50505050509250955095509550955095509550909192939495565b6007805461136c90613607565b80601f016020809104026020016040519081016040528092919081815260200182805461139890613607565b80156113e55780601f106113ba576101008083540402835291602001916113e5565b820191906000526020600020905b8154815290600101906020018083116113c857829003601f168201915b505050505081565b600460009054906101000a900473ffffffffffffffffffffffffffffffffffffffff1681565b6008805461142090613607565b80601f016020809104026020016040519081016040528092919081815260200182805461144c90613607565b80156114995780601f1061146e57610100808354040283529160200191611499565b820191906000526020600020905b81548152906001019060200180831161147c57829003601f168201915b505050505081565b60145481565b600560009054906101000a900473ffffffffffffffffffffffffffffffffffffffff1673ffffffffffffffffffffffffffffffffffffffff166322f3e2d46040518163ffffffff1660e01b815260040160206040518083038186803b15801561150f57600080fd5b505afa158015611523573d6000803e3d6000fd5b505050506040513d601f19601f820116820180604052508101906115479190612be2565b61155057600080fd5b60006040518060e001604052808881526020013373ffffffffffffffffffffffffffffffffffffffff1681526020018781526020018581526020018681526020018415158152602001831515815250905080601860003373ffffffffffffffffffffffffffffffffffffffff1673ffffffffffffffffffffffffffffffffffffffff1681526020019081526020016000206000820151816000015560208201518160010160006101000a81548173ffffffffffffffffffffffffffffffffffffffff021916908373ffffffffffffffffffffffffffffffffffffffff160217905550604082015181600201908051906020019061164e929190612989565b50606082015181600301908051906020019061166b929190612989565b506080820151816004015560a08201518160050160006101000a81548160ff02191690831515021790555060c08201518160050160016101000a81548160ff0219169083151502179055509050506017339080600181540180825580915050600190039060005260206000200160009091909190916101000a81548173ffffffffffffffffffffffffffffffffffffffff021916908373ffffffffffffffffffffffffffffffffffffffff1602179055506014600081548092919061172f9061366a565b919050555050505050505050565b600f5481565b600560009054906101000a900473ffffffffffffffffffffffffffffffffffffffff1673ffffffffffffffffffffffffffffffffffffffff166322f3e2d46040518163ffffffff1660e01b815260040160206040518083038186803b1580156117ab57600080fd5b505afa1580156117bf573d6000803e3d6000fd5b505050506040513d601f19601f820116820180604052508101906117e39190612be2565b6117ec57600080fd5b6000601860003373ffffffffffffffffffffffffffffffffffffffff1673ffffffffffffffffffffffffffffffffffffffff168152602001908152602001600020905084816000018190555083816002019080519060200190611850929190612989565b5082816003019080519060200190611869929190612989565b50818160050160016101000a81548160ff0219169083151502179055505050505050565b60105481565b600080606080600080600080601860008a73ffffffffffffffffffffffffffffffffffffffff1673ffffffffffffffffffffffffffffffffffffffff168152602001908152602001600020905080600001548160010160009054906101000a900473ffffffffffffffffffffffffffffffffffffffff16826002018360030184600401548560050160009054906101000a900460ff168660050160019054906101000a900460ff1684805461194790613607565b80601f016020809104026020016040519081016040528092919081815260200182805461197390613607565b80156119c05780601f10611995576101008083540402835291602001916119c0565b820191906000526020600020905b8154815290600101906020018083116119a357829003601f168201915b505050505094508380546119d390613607565b80601f01602080910402602001604051908101604052809291908181526020018280546119ff90613607565b8015611a4c5780601f10611a2157610100808354040283529160200191611a4c565b820191906000526020600020905b815481529060010190602001808311611a2f57829003601f168201915b50505050509350975097509750975097509750975050919395979092949650565b601560039054906101000a900460ff1681565b60068054611a8d90613607565b80601f0160208091040260200160405190810160405280929190818152602001828054611ab990613607565b8015611b065780601f10611adb57610100808354040283529160200191611b06565b820191906000526020600020905b815481529060010190602001808311611ae957829003601f168201915b505050505081565b60026000541415611b1e57600080fd5b600260008190555062014a7842611b3591906134b5565b5080600c9080519060200190611b4c929190612989565b50611b5561254e565b600160008190555050565b60026000541415611b7057600080fd5b6002600081905550600f544211611bbc576040517f08c379a0000000000000000000000000000000000000000000000000000000008152600401611bb39061328e565b60405180910390fd5b601560039054906101000a900460ff1615611c0c576040517f08c379a0000000000000000000000000000000000000000000000000000000008152600401611c039061322e565b60405180910390fd5b611c1461254e565b6001600081905550565b600d8054611c2b90613607565b80601f0160208091040260200160405190810160405280929190818152602001828054611c5790613607565b8015611ca45780601f10611c7957610100808354040283529160200191611ca4565b820191906000526020600020905b815481529060010190602001808311611c8757829003601f168201915b505050505081565b601560009054906101000a900460ff1681565b600560009054906101000a900473ffffffffffffffffffffffffffffffffffffffff1673ffffffffffffffffffffffffffffffffffffffff166322f3e2d46040518163ffffffff1660e01b815260040160206040518083038186803b158015611d2757600080fd5b505afa158015611d3b573d6000803e3d6000fd5b505050506040513d601f19601f82011682018060405250810190611d5f9190612be2565b611d6857600080fd5b8073ffffffffffffffffffffffffffffffffffffffff163073ffffffffffffffffffffffffffffffffffffffff1614611da057600080fd5b8460069080519060200190611db6929190612989565b508360079080519060200190611dcd929190612989565b508260089080519060200190611de4929190612989565b508160099080519060200190611dfb929190612989565b505050505050565b3373ffffffffffffffffffffffffffffffffffffffff16600460009054906101000a900473ffffffffffffffffffffffffffffffffffffffff1673ffffffffffffffffffffffffffffffffffffffff1614611e5d57600080fd5b600073ffffffffffffffffffffffffffffffffffffffff168173ffffffffffffffffffffffffffffffffffffffff161415611e9757600080fd5b80600460006101000a81548173ffffffffffffffffffffffffffffffffffffffff021916908373ffffffffffffffffffffffffffffffffffffffff16021790555050565b600a8054611ee890613607565b80601f0160208091040260200160405190810160405280929190818152602001828054611f1490613607565b8015611f615780601f10611f3657610100808354040283529160200191611f61565b820191906000526020600020905b815481529060010190602001808311611f4457829003601f168201915b505050505081565b600e5481565b600b8054611f7c90613607565b80601f0160208091040260200160405190810160405280929190818152602001828054611fa890613607565b8015611ff55780601f10611fca57610100808354040283529160200191611ff5565b820191906000526020600020905b815481529060010190602001808311611fd857829003601f168201915b505050505081565b6002600054141561200d57600080fd5b600260008190555061201d612113565b600560009054906101000a900473ffffffffffffffffffffffffffffffffffffffff1673ffffffffffffffffffffffffffffffffffffffff1663147aad6e83601660009054906101000a900473ffffffffffffffffffffffffffffffffffffffff166040518363ffffffff1660e01b815260040161209c9291906132e9565b600060405180830381600087803b1580156120b657600080fd5b505af11580156120ca573d6000803e3d6000fd5b5050505080600d90805190602001906120e4929190612989565b506001601560046101000a81548160ff0219169083151502179055504260128190555060016000819055505050565b6000601560019054906101000a900460ff161561254b5760135473__$0b4a30207c22200d0590b5b5b045663719$__63a293d1e8909160135473__$0b4a30207c22200d0590b5b5b045663719$__63d05c78da9091600560009054906101000a900473ffffffffffffffffffffffffffffffffffffffff1673ffffffffffffffffffffffffffffffffffffffff16620d35a76040518163ffffffff1660e01b815260040160206040518083038186803b1580156121cf57600080fd5b505afa1580156121e3573d6000803e3d6000fd5b505050506040513d601f19601f820116820180604052508101906122079190612d4c565b6040518363ffffffff1660e01b81526004016122249291906133e1565b60206040518083038186803b15801561223c57600080fd5b505af4158015612250573d6000803e3d6000fd5b505050506040513d601f19601f820116820180604052508101906122749190612d4c565b73__$0b4a30207c22200d0590b5b5b045663719$__63b5931f7c90916103e86040518363ffffffff1660e01b81526004016122b092919061338f565b60206040518083038186803b1580156122c857600080fd5b505af41580156122dc573d6000803e3d6000fd5b505050506040513d601f19601f820116820180604052508101906123009190612d4c565b6040518363ffffffff1660e01b815260040161231d9291906133e1565b60206040518083038186803b15801561233557600080fd5b505af4158015612349573d6000803e3d6000fd5b505050506040513d601f19601f8201168201806040525081019061236d9190612d4c565b9050601660009054906101000a900473ffffffffffffffffffffffffffffffffffffffff1673ffffffffffffffffffffffffffffffffffffffff166108fc829081150290604051600060405180830381858888f193505050501580156123d7573d6000803e3d6000fd5b50600560009054906101000a900473ffffffffffffffffffffffffffffffffffffffff1673ffffffffffffffffffffffffffffffffffffffff1663412753586040518163ffffffff1660e01b815260040160206040518083038186803b15801561244057600080fd5b505afa158015612454573d6000803e3d6000fd5b505050506040513d601f19601f820116820180604052508101906124789190612bb9565b73ffffffffffffffffffffffffffffffffffffffff166108fc60135473__$0b4a30207c22200d0590b5b5b045663719$__63a293d1e89091856040518363ffffffff1660e01b81526004016124ce9291906133e1565b60206040518083038186803b1580156124e657600080fd5b505af41580156124fa573d6000803e3d6000fd5b505050506040513d601f19601f8201168201806040525081019061251e9190612d4c565b9081150290604051600060405180830381858888f19350505050158015612549573d6000803e3d6000fd5b505b50565b6000601560019054906101000a900460ff16156129865760135473__$0b4a30207c22200d0590b5b5b045663719$__63a293d1e8909160135473__$0b4a30207c22200d0590b5b5b045663719$__63d05c78da9091600560009054906101000a900473ffffffffffffffffffffffffffffffffffffffff1673ffffffffffffffffffffffffffffffffffffffff16620d35a76040518163ffffffff1660e01b815260040160206040518083038186803b15801561260a57600080fd5b505afa15801561261e573d6000803e3d6000fd5b505050506040513d601f19601f820116820180604052508101906126429190612d4c565b6040518363ffffffff1660e01b815260040161265f9291906133e1565b60206040518083038186803b15801561267757600080fd5b505af415801561268b573d6000803e3d6000fd5b505050506040513d601f19601f820116820180604052508101906126af9190612d4c565b73__$0b4a30207c22200d0590b5b5b045663719$__63b5931f7c90916103e86040518363ffffffff1660e01b81526004016126eb92919061338f565b60206040518083038186803b15801561270357600080fd5b505af4158015612717573d6000803e3d6000fd5b505050506040513d601f19601f8201168201806040525081019061273b9190612d4c565b6040518363ffffffff1660e01b81526004016127589291906133e1565b60206040518083038186803b15801561277057600080fd5b505af4158015612784573d6000803e3d6000fd5b505050506040513d601f19601f820116820180604052508101906127a89190612d4c565b9050601660009054906101000a900473ffffffffffffffffffffffffffffffffffffffff1673ffffffffffffffffffffffffffffffffffffffff166108fc829081150290604051600060405180830381858888f19350505050158015612812573d6000803e3d6000fd5b50600560009054906101000a900473ffffffffffffffffffffffffffffffffffffffff1673ffffffffffffffffffffffffffffffffffffffff1663412753586040518163ffffffff1660e01b815260040160206040518083038186803b15801561287b57600080fd5b505afa15801561288f573d6000803e3d6000fd5b505050506040513d601f19601f820116820180604052508101906128b39190612bb9565b73ffffffffffffffffffffffffffffffffffffffff166108fc60135473__$0b4a30207c22200d0590b5b5b045663719$__63a293d1e89091856040518363ffffffff1660e01b81526004016129099291906133e1565b60206040518083038186803b15801561292157600080fd5b505af4158015612935573d6000803e3d6000fd5b505050506040513d601f19601f820116820180604052508101906129599190612d4c565b9081150290604051600060405180830381858888f19350505050158015612984573d6000803e3d6000fd5b505b50565b82805461299590613607565b90600052602060002090601f0160209004810192826129b757600085556129fe565b82601f106129d057805160ff19168380011785556129fe565b828001600101855582156129fe579182015b828111156129fd5782518255916020019190600101906129e2565b5b509050612a0b9190612a4f565b5090565b508054612a1b90613607565b6000825580601f10612a2d5750612a4c565b601f016020900490600052602060002090810190612a4b9190612a4f565b5b50565b5b80821115612a68576000816000905550600101612a50565b5090565b6000612a7f612a7a8461342f565b61340a565b905082815260208101848484011115612a9757600080fd5b612aa284828561359b565b509392505050565b600081359050612ab98161381e565b92915050565b600081359050612ace81613835565b92915050565b600081519050612ae381613835565b92915050565b600081359050612af88161384c565b92915050565b600081519050612b0d8161384c565b92915050565b600082601f830112612b2457600080fd5b8135612b34848260208601612a6c565b91505092915050565b600081359050612b4c81613863565b92915050565b600081519050612b6181613863565b92915050565b600060208284031215612b7957600080fd5b6000612b8784828501612aaa565b91505092915050565b600060208284031215612ba257600080fd5b6000612bb084828501612abf565b91505092915050565b600060208284031215612bcb57600080fd5b6000612bd984828501612ad4565b91505092915050565b600060208284031215612bf457600080fd5b6000612c0284828501612afe565b91505092915050565b600060208284031215612c1d57600080fd5b600082013567ffffffffffffffff811115612c3757600080fd5b612c4384828501612b13565b91505092915050565b600080600080600060a08688031215612c6457600080fd5b600086013567ffffffffffffffff811115612c7e57600080fd5b612c8a88828901612b13565b955050602086013567ffffffffffffffff811115612ca757600080fd5b612cb388828901612b13565b945050604086013567ffffffffffffffff811115612cd057600080fd5b612cdc88828901612b13565b935050606086013567ffffffffffffffff811115612cf957600080fd5b612d0588828901612b13565b9250506080612d1688828901612aaa565b9150509295509295909350565b600060208284031215612d3557600080fd5b6000612d4384828501612b3d565b91505092915050565b600060208284031215612d5e57600080fd5b6000612d6c84828501612b52565b91505092915050565b60008060408385031215612d8857600080fd5b6000612d9685828601612b3d565b925050602083013567ffffffffffffffff811115612db357600080fd5b612dbf85828601612b13565b9150509250929050565b60008060008060808587031215612ddf57600080fd5b6000612ded87828801612b3d565b945050602085013567ffffffffffffffff811115612e0a57600080fd5b612e1687828801612b13565b935050604085013567ffffffffffffffff811115612e3357600080fd5b612e3f87828801612b13565b9250506060612e5087828801612ae9565b91505092959194509250565b60008060008060008060c08789031215612e7557600080fd5b6000612e8389828a01612b3d565b965050602087013567ffffffffffffffff811115612ea057600080fd5b612eac89828a01612b13565b9550506040612ebd89828a01612b3d565b945050606087013567ffffffffffffffff811115612eda57600080fd5b612ee689828a01612b13565b9350506080612ef789828a01612ae9565b92505060a0612f0889828a01612ae9565b9150509295509295509295565b6000612f218383612f3c565b60208301905092915050565b612f368161351d565b82525050565b612f458161350b565b82525050565b612f548161350b565b82525050565b6000612f6582613470565b612f6f8185613493565b9350612f7a83613460565b8060005b83811015612fab578151612f928882612f15565b9750612f9d83613486565b925050600181019050612f7e565b5085935050505092915050565b612fc18161352f565b82525050565b612fd081613565565b82525050565b612fdf81613577565b82525050565b612fee81613589565b82525050565b6000612fff8261347b565b61300981856134a4565b93506130198185602086016135aa565b61302281613740565b840191505092915050565b600061303a601d836134a4565b915061304582613751565b602082019050919050565b600061305d600c836134a4565b91506130688261377a565b602082019050919050565b6000613080601e836134a4565b915061308b826137a3565b602082019050919050565b60006130a3600a836134a4565b91506130ae826137cc565b602082019050919050565b60006130c66019836134a4565b91506130d1826137f5565b602082019050919050565b6130e58161355b565b82525050565b6130f48161355b565b82525050565b600060208201905061310f6000830184612f4b565b92915050565b600060208201905061312a6000830184612f2d565b92915050565b6000602082019050818103600083015261314a8184612f5a565b905092915050565b60006020820190506131676000830184612fb8565b92915050565b60006040820190506131826000830185612fd6565b61318f6020830184612f2d565b9392505050565b600060208201905081810360008301526131b08184612ff4565b905092915050565b600060c08201905081810360008301526131d28189612ff4565b905081810360208301526131e68188612ff4565b90506131f560408301876130dc565b81810360608301526132078186612ff4565b905061321660808301856130dc565b61322360a0830184612fb8565b979650505050505050565b600060208201905081810360008301526132478161302d565b9050919050565b6000602082019050818103600083015261326781613050565b9050919050565b6000602082019050818103600083015261328781613073565b9050919050565b600060208201905081810360008301526132a781613096565b9050919050565b600060208201905081810360008301526132c7816130b9565b9050919050565b60006020820190506132e360008301846130dc565b92915050565b60006040820190506132fe60008301856130dc565b61330b6020830184612f2d565b9392505050565b600060e082019050613327600083018a6130dc565b6133346020830189612f4b565b81810360408301526133468188612ff4565b9050818103606083015261335a8187612ff4565b905061336960808301866130dc565b61337660a0830185612fb8565b61338360c0830184612fb8565b98975050505050505050565b60006040820190506133a460008301856130eb565b6133b16020830184612fc7565b9392505050565b60006040820190506133cd60008301856130eb565b6133da6020830184612fe5565b9392505050565b60006040820190506133f660008301856130eb565b61340360208301846130eb565b9392505050565b6000613414613425565b90506134208282613639565b919050565b6000604051905090565b600067ffffffffffffffff82111561344a57613449613711565b5b61345382613740565b9050602081019050919050565b6000819050602082019050919050565b600081519050919050565b600081519050919050565b6000602082019050919050565b600082825260208201905092915050565b600082825260208201905092915050565b60006134c08261355b565b91506134cb8361355b565b9250827fffffffffffffffffffffffffffffffffffffffffffffffffffffffffffffffff03821115613500576134ff6136b3565b5b828201905092915050565b60006135168261353b565b9050919050565b60006135288261353b565b9050919050565b60008115159050919050565b600073ffffffffffffffffffffffffffffffffffffffff82169050919050565b6000819050919050565b60006135708261355b565b9050919050565b60006135828261355b565b9050919050565b60006135948261355b565b9050919050565b82818337600083830152505050565b60005b838110156135c85780820151818401526020810190506135ad565b838111156135d7576000848401525b50505050565b60006135e88261355b565b915060008214156135fc576135fb6136b3565b5b600182039050919050565b6000600282049050600182168061361f57607f821691505b60208210811415613633576136326136e2565b5b50919050565b61364282613740565b810181811067ffffffffffffffff8211171561366157613660613711565b5b80604052505050565b60006136758261355b565b91507fffffffffffffffffffffffffffffffffffffffffffffffffffffffffffffffff8214156136a8576136a76136b3565b5b600182019050919050565b7f4e487b7100000000000000000000000000000000000000000000000000000000600052601160045260246000fd5b7f4e487b7100000000000000000000000000000000000000000000000000000000600052602260045260246000fd5b7f4e487b7100000000000000000000000000000000000000000000000000000000600052604160045260246000fd5b6000601f19601f8301169050919050565b7f667265656c616e63657220646f65736e6f742073656e642066696c6520000000600082015250565b7f6175746f20636f6e6669726d0000000000000000000000000000000000000000600082015250565b7f656d706c6f796565206e6f74207265766569766564207468652066696c650000600082015250565b7f64656164206c696e652000000000000000000000000000000000000000000000600082015250565b7f667265656c616e6365722073656e64207468652066696c657300000000000000600082015250565b6138278161350b565b811461383257600080fd5b50565b61383e8161351d565b811461384957600080fd5b50565b6138558161352f565b811461386057600080fd5b50565b61386c8161355b565b811461387757600080fd5b5056fea264697066735822122077ca66b5d1c691bd455aae1f9142fd050b2ac85bd205476e13cf04275e5a9a1864736f6c63430008040033a2646970667358221220446ae15f704184bc8a7395f21972f0672e48a4f5008c7733fb37d6aa179b26f164736f6c63430008040033",
  "linkReferences": {
    "contracts/Main.sol": {
      "SafeMath": [
        {
          "length": 20,
          "start": 13642
        },
        {
          "length": 20,
          "start": 18788
        },
        {
          "length": 20,
          "start": 18819
        },
        {
          "length": 20,
          "start": 19115
        },
        {
          "length": 20,
          "start": 19659
        },
        {
          "length": 20,
          "start": 19871
        },
        {
          "length": 20,
          "start": 19902
        },
        {
          "length": 20,
          "start": 20198
        },
        {
          "length": 20,
          "start": 20742
        }
      ]
    }
  },
  "deployedLinkReferences": {
    "contracts/Main.sol": {
      "SafeMath": [
        {
          "length": 20,
          "start": 13166
        },
        {
          "length": 20,
          "start": 18312
        },
        {
          "length": 20,
          "start": 18343
        },
        {
          "length": 20,
          "start": 18639
        },
        {
          "length": 20,
          "start": 19183
        },
        {
          "length": 20,
          "start": 19395
        },
        {
          "length": 20,
          "start": 19426
        },
        {
          "length": 20,
          "start": 19722
        },
        {
          "length": 20,
          "start": 20266
        }
      ]
    }
  }
}