{
  "_format": "hh-sol-artifact-1",
  "contractName": "SafeMath",
  "sourceName": "contracts/Main.sol",
  "abi": [
    {
      "inputs": [
        {
          "internalType": "uint256",
          "name": "a",
          "type": "uint256"
        },
        {
          "internalType": "uint256",
          "name": "b",
          "type": "uint256"
        }
      ],
      "name": "safeAdd",
      "outputs": [
        {
          "internalType": "uint256",
          "name": "c",
          "type": "uint256"
        }
      ],
      "stateMutability": "pure",
      "type": "function"
    },
    {
      "inputs": [
        {
          "internalType": "uint256",
          "name": "a",
          "type": "uint256"
        },
        {
          "internalType": "uint256",
          "name": "b",
          "type": "uint256"
        }
      ],
      "name": "safeDiv",
      "outputs": [
        {
          "internalType": "uint256",
          "name": "c",
          "type": "uint256"
        }
      ],
      "stateMutability": "pure",
      "type": "function"
    },
    {
      "inputs": [
        {
          "internalType": "uint256",
          "name": "a",
          "type": "uint256"
        },
        {
          "internalType": "uint256",
          "name": "b",
          "type": "uint256"
        }
      ],
      "name": "safeMul",
      "outputs": [
        {
          "internalType": "uint256",
          "name": "c",
          "type": "uint256"
        }
      ],
      "stateMutability": "pure",
      "type": "function"
    },
    {
      "inputs": [
        {
          "internalType": "uint256",
          "name": "a",
          "type": "uint256"
        },
        {
          "internalType": "uint256",
          "name": "b",
          "type": "uint256"
        }
      ],
      "name": "safeSub",
      "outputs": [
        {
          "internalType": "uint256",
          "name": "c",
          "type": "uint256"
        }
      ],
      "stateMutability": "pure",
      "type": "function"
    }
  ],
  "bytecode": "0x610400610053600b82828239805160001a607314610046577f4e487b7100000000000000000000000000000000000000000000000000000000600052600060045260246000fd5b30600052607381538281f3fe73000000000000000000000000000000000000000030146080604052600436106100565760003560e01c8063a293d1e81461005b578063b5931f7c1461008b578063d05c78da146100bb578063e6cb9013146100eb575b600080fd5b610075600480360381019061007091906101d0565b61011b565b604051610082919061021b565b60405180910390f35b6100a560048036038101906100a091906101d0565b61013e565b6040516100b2919061021b565b60405180910390f35b6100d560048036038101906100d091906101d0565b610160565b6040516100e2919061021b565b60405180910390f35b610105600480360381019061010091906101d0565b610198565b604051610112919061021b565b60405180910390f35b60008282111561012a57600080fd5b81836101369190610317565b905092915050565b600080821161014c57600080fd5b8183610158919061028c565b905092915050565b6000818361016e91906102bd565b905060008314806101895750818382610187919061028c565b145b61019257600080fd5b92915050565b600081836101a69190610236565b9050828110156101b557600080fd5b92915050565b6000813590506101ca816103b3565b92915050565b600080604083850312156101e357600080fd5b60006101f1858286016101bb565b9250506020610202858286016101bb565b9150509250929050565b6102158161034b565b82525050565b6000602082019050610230600083018461020c565b92915050565b60006102418261034b565b915061024c8361034b565b9250827fffffffffffffffffffffffffffffffffffffffffffffffffffffffffffffffff0382111561028157610280610355565b5b828201905092915050565b60006102978261034b565b91506102a28361034b565b9250826102b2576102b1610384565b5b828204905092915050565b60006102c88261034b565b91506102d38361034b565b9250817fffffffffffffffffffffffffffffffffffffffffffffffffffffffffffffffff048311821515161561030c5761030b610355565b5b828202905092915050565b60006103228261034b565b915061032d8361034b565b9250828210156103405761033f610355565b5b828203905092915050565b6000819050919050565b7f4e487b7100000000000000000000000000000000000000000000000000000000600052601160045260246000fd5b7f4e487b7100000000000000000000000000000000000000000000000000000000600052601260045260246000fd5b6103bc8161034b565b81146103c757600080fd5b5056fea2646970667358221220c6a6b92f96916f6254f59abd47fa90b764dcac9c645fafa53271f632ee44dfb864736f6c63430008040033",
  "linkReferences": {},
  "deployedLinkReferences": {}
}